:020000040800F2
:10000000180A00204901000815050008FD03000832
:1000100001040008B50100082F0C000800000000D2
:10002000000000000000000000000000B50600080D
:10003000B9010008000000009D050008C507000880
:100040006301000863010008630100086301000800
:1000500063010008630100086301000863010008F0
:1000600063010008630100086301000863010008E0
:1000700063010008630100086301000863010008D0
:1000800063010008630100086301000863010008C0
:1000900063010008630100086301000863010008B0
:1000A00063010008630100086301000863010008A0
:1000B0006301000863010008630100086301000890
:1000C0006301000863010008630100086301000880
:1000D0006301000839090008C1090008630100082C
:1000E0006301000863010008630100086301000860
:1000F0006301000863010008630100086301000850
:10010000630100086301000863010008630100083F
:10011000630100086301000863010008630100082F
:10012000630100086301000863010008630100081F
:10013000DFF810D000F02CF800480047850D0008CB
:10014000AFF30080180A00200648804706480047A1
:10015000FEE7FEE7FEE7FEE7FEE7FEE7FEE7FEE777
:10016000FEE7FEE7C907000831010008D2B201E04E
:1001700000F8012B491EFBD270470022F6E710B5AC
:1001800013460A4604461946FFF7F0FF204610BD05
:10019000064C074D06E0E06840F0010394E80700D4
:1001A00098471034AC42F6D3FFF7C6FFC80F0008DB
:1001B000E80F000800BFFEE770472DE9FF4706463D
:1001C0000F4615469846DDE90D9A0C9C00200090DC
:1001D0000190029003908DF80060FD208DF80100E1
:1001E0008DF8027028128DF80300E8B28DF8040033
:1001F0008DF80580200E8DF80600200C8DF8070084
:10020000200A8DF80800E0B28DF809008DF80A90F8
:100210008DF80BA06B208DF80C000D21684600F0C6
:1002200029FEBDE8FF871FB504460020009001901D
:10023000029003908DF80040FF208DF801006620A9
:100240008DF802006B208DF803000421684600F051
:1002500011FE1FBD2DE9F0410246002500260020B9
:1002600000230024002791F803C00CF00F0591F83B
:1002700003C00CF0100CBCF1000F03D091F802C0C9
:100280004CEA050591F800C0BCF1000F31D01468AC
:1002900000202BE04FF0010C0CFA00F3B1F800C085
:1002A0000CEA03069E4220D183004FF00F0C0CFA9B
:1002B00003F7BC4305FA03FC4CEA040491F803C0BD
:1002C000BCF1280F06D14FF0010C0CFA00FCC2F86B
:1002D00014C00AE091F803C0BCF1480F05D14FF0FB
:1002E000010C0CFA00FCC2F810C0401C0828D1D345
:1002F0001460B1F800C0BCF1FF0F34DD5468002079
:100300002EE000F1080C4FF0010808FA0CF3B1F8E8
:1003100000C00CEA03069E4221D183004FF00F0C6F
:100320000CFA03F7BC4305FA03FC4CEA040491F809
:1003300003C0BCF1280F05D100F1080C08FA0CF835
:10034000C2F8148091F803C0BCF1480F07D100F146
:10035000080C4FF0010808FA0CF8C2F81080401C95
:100360000828CED35460BDE8F0810000F0B50A46FD
:10037000002300240021002500F00046B6F1004FC4
:1003800002D11D4EF16901E01B4E7168C0F30345B7
:1003900083B200F44016B6F5401F08D121F0706119
:1003A000154E766826F07066134F7E6012E000F4FA
:1003B0008016B6F5801F06D1032606FA05F4A14380
:1003C00041F0706106E0460D360103FA06F6B143CE
:1003D00041F0706122B1460D360103FA06F6314351
:1003E00000F00046B6F1004F02D1034EF16101E08A
:1003F000014E7160F0BD00000000014000BFFEE74B
:1004000000BFFEE72DE9F04FA3B005460E461746A4
:100410009846802103A8FFF7B0FE4FF0000B0024A0
:1004200001200021EC232A46CDE900710290FFF75C
:10043000C4FE09E0012000F027FC601C84B2642C9B
:1004400002DD4FF0000B03E0314800780028F1D0C6
:1004500000BF00202E4908700A2000F015FC012082
:100460000021EC233246CDE90081029001460220B2
:10047000FFF7A3FE09E0012000F006FC601C84B237
:10048000642C02DD4FF0000B03E0214800780028C7
:10049000F1D000BF00201E4908700A2000F0F4FBD4
:1004A0000020FFF7C0FE09E0012000F0EDFB601C1A
:1004B00084B2642C02DD4FF0000B03E01448007896
:1004C0000028F1D000BF0020114908700A2000F078
:1004D000DBFBC7EB071000EB8000B0FBF5F04FEA49
:1004E0009009C8EB081000EB8000B0FBF6F04FEA73
:1004F000900AD14501D9494600E05146084600F02E
:10050000C3FB4FF4FA7000F0BFFB23B0BDE8F08FDF
:10051000000000207047000070B5002100230F226A
:10052000C47804B3154C246804F4E064C4F5E064B2
:10053000210AC1F10403CA40447804FA03F1847823
:100540001440214309010E4C0678A155047804F0AB
:100550001F050124AC4005786D11AD0005F1E025C3
:10056000C5F8004109E0047804F01F050124AC40FF
:10057000044D0678761145F8264070BD0CED00E07C
:1005800000E400E080E100E002490143024A11601A
:10059000704700000000FA050CED00E07047000015
:1005A00029B1064AD2690243044BDA6104E0034AE6
:1005B000D2698243014BDA617047000000100240AB
:1005C00029B1064A92690243044B9A6104E0034A46
:1005D00092698243014B9A6170470000001002400B
:1005E00030B500210022002400232D4D6D6805F058
:1005F0000C0121B1042905D0082923D105E0294D9A
:10060000056022E0274D05601FE0254D6D6805F46B
:100610007012234D6D6805F48034022505EB92427B
:100620001CB9214D554305600BE01D4D6D6805F467
:1006300000351DB11C4D5543056002E0194D554371
:10064000056002E0174D056000BF00BF144D6D68E6
:1006500005F0F0010909154D6B5C0568DD4045604A
:100660000F4D6D6805F4E061090A104D6B5C45683B
:10067000DD4085600A4D6D6805F46051C90A0B4D77
:100680006B5C4568DD40C560054D6D6805F4404113
:10069000890B074D6B5CC568B5FBF3F5056130BD93
:1006A0000010024000127A0000093D001C000020EA
:1006B0002C000020704710B500F002F810BD0000BB
:1006C0000CB50020019000903348006840F4803061
:1006D0003149086000BF3048006800F400300090E5
:1006E0000198401C0190009818B90198B0F5A06FCE
:1006F000F1D12948006800F4003010B101200090C9
:1007000001E0002000900098012843D123480068B0
:1007100040F01000214908600846006820F00300FE
:1007200008600846006840F0020008601A48406807
:10073000194948600846406848600846406840F4E7
:10074000806048600846406820F47C104860084695
:10075000406840F4E81048600846006840F0807047
:10076000086000BF0C48006800F000700028F9D055
:100770000948406820F0030007494860084640687F
:1007800040F00200486000BF0348406800F00C00E1
:100790000828F9D10CBD00000010024000200240E2
:1007A0002DE9F04104460D46CC274FF4FA4068434A
:1007B000B0FBF7F63346324621462046FFF722FECD
:1007C000BDE8F0817047000010B51348006840F0A4
:1007D00001001149086008464068104908400E4968
:1007E0004860084600680E4908400B490860084602
:1007F000006820F4802008600846406820F4FE006D
:1008000048604FF41F008860FFF755FF4FF000600D
:100810000449086010BD0000001002400000FFF80D
:10082000FFFFF6FE08ED00E02DE9F04FA3B006460D
:100830000F4690464FF041094FF0A90A4FF4486126
:1008400007FB01F000FB0AF04FF4B47190FBF1F0EC
:1008500090FBF9F5802103A8FFF78FFC00BF00246F
:1008600001200021EC234246CDE90051029031469F
:10087000FFF7A3FC08E0012000F006FA601C84B238
:10088000642C01DD00BF03E02A4800780028F2D084
:1008900000BF0020274908700A2000F0F5F9012068
:1008A0000021EC234246CDE900510290314602205E
:1008B000FFF783FC08E0012000F0E6F9601C84B239
:1008C000642C01DD00BF03E01A4800780028F2D054
:1008D00000BF0020174908700A2000F0D5F9002059
:1008E000FFF7A1FC08E0012000F0CEF9601C84B203
:1008F000642C01DD00BF03E00E4800780028F2D030
:1009000000BF00200B4908700A2000F0BDF9C5EBBC
:10091000051000EB8000B0FBF8F04FEA900B584652
:1009200000F0B2F94FF47A7000F0AEF923B0BDE8F0
:10093000F08F00000000002008B50020009040F279
:1009400025511B4800F0B3F858B11949091D098811
:10095000C8B200F0E1F940F22551154800F08CF8DA
:1009600025E040F22441124800F0A1F8F8B1104807
:1009700000880F48001D008800F0E6F90D49087056
:10098000002000900AE000F0AFF90B49BDF800200C
:100990008854BDF80000401C80B20090BDF80000F3
:1009A000044909788842EEDB01200449087008BD3B
:1009B000003801400100002030000020000000202D
:1009C00070B540F22551274800F071F8002847D053
:1009D000244800F027F9C4B22348007844EA0020F4
:1009E00085B24AF6AA20854206D101201F49087027
:1009F00000201F49087030E04FF6FF7085421BD180
:100A00001A480078C0B11A48007800280BDD184851
:100A10000078401E1749085CFF2804D1144800786C
:100A2000401E1349087012480178124800F0D8F9A6
:100A300000200E49087010E00C48007868B10C499D
:100A40000878411C0A4A11700A490C541046007873
:100A5000642802DB0020054908700348048000BFB9
:100A600070BD00000044004004000020020000208F
:100A700003000020B000002010B50022002340F643
:100A80006A14A14200D100BF0A1201249440A3B20B
:100A9000DC43048010BD21B1828942F4005282817E
:100AA00004E082894DF6FF731A408281704770B569
:100AB0000246002400230025002040F66A16B142B9
:100AC00000D100BFC1F3421501F01F03012606FA51
:100AD00003F3012D02D19689334006E0022D02D1A5
:100AE000168A334001E0968A33400C12012606FA3A
:100AF00004F41688344013B10CB1012000E000204A
:100B000070BDF0B50346002400260025002040F605
:100B10006A17B94200D100BF1846C1F3421401F070
:100B20001F06012707FA06F5012C01D10C3004E05D
:100B3000022C01D1103000E014301AB107682F43A5
:100B4000076002E00768AF430760F0BD2DE9F0479A
:100B500086B005460E460024A24600BFA1460027E7
:100B6000B08900B100BF2F462C8A4CF6FF700440BC
:100B7000F08804432C82AC894EF6F3100440B08810
:100B800031890843718908430443AC81AC8A4FF62C
:100B9000FF400440B0890443AC8201A8FFF720FD68
:100BA0001F48874202D1DDF810A001E0DDF80CA05B
:100BB000A88900F4004040B10AEBCA0000EB0A101B
:100BC00031684900B0FBF1F807E00AEBCA0000EB1E
:100BD0000A1031688900B0FBF1F86420B8FBF0F02E
:100BE00004012009642101FB1089A88900F4004058
:100BF00040B1322000EBC900B0FBF1F000F007007B
:100C0000044308E0322000EB09106421B0FBF1F04E
:100C100000F00F0004432C8106B0BDE8F08700000F
:100C20000038014001468888C0F30800704700BFC3
:100C3000FEE702E008C8121F08C1002AFAD1704777
:100C40007047002001E001C1121F002AFBD170474C
:100C500010B500F0A3F800F003F800F021F910BD82
:100C600010B501210D20FFF7ABFC01218803FFF730
:100C7000A7FC01214804FFF793FC01210148FFF77D
:100C800075FB10BD0002300008B5002100916FF027
:100C90007F414FF0E02251610021916105211161F6
:100CA00014E000214FF0E02291610E4909684FF4F1
:100CB0007A72B1FBF2F1C1F18071009100BF4FF087
:100CC000E0218969009A9142F9D8401E0028E8DCA9
:100CD0004FF0E021096921F001014FF0E02211619C
:100CE00008BD00000800002000200A4991F8011109
:100CF000084A32F81100114691F80111491C82F896
:100D00000111114691F80111802902DB002182F8BE
:100D100001117047140100200A4991F80011094A95
:100D200022F81100114691F80011491C82F80011B7
:100D3000114691F80011802902DB002182F8001190
:100D400070470000140100200D4890F801010C4983
:100D500091F80011884208DC094890F80001084920
:100D600091F80111401A80B27047054890F80101CE
:100D7000C0F18000024991F80011084480B2F3E705
:100D800014010020FFF764FF4FF4FA60FFF77CFFC7
:100D9000CC213220FFF704FD00BFFEE708B54FF479
:100DA0004070FFF7F1FB01208DF8030000208DF863
:100DB00002008DF8010025208DF800006846FFF73D
:100DC000ABFB01208DF803008DF8020000208DF8A8
:100DD000010026208DF800006846FFF79DFB08BD46
:100DE00070B505460E46002400BF21E0285D10289E
:100DF00006D1601C295C32220120FFF715FD15E0A9
:100E0000285D202806D1601C295C32220020FFF7D3
:100E10000BFD0BE0285D00F0F00038B9601C285C89
:100E20002A5D40EA02213220FFF7BAFCA01CC4B2BE
:100E3000B442DBDB70BD000008B500210091C0F3B7
:100E400008010B4A11800AE0BDF80010491C89B264
:100E50000091BDF80010B1F5FA5F00DD08BD04494E
:100E6000091F098801F080010029EDD000BFF5E7D6
:100E70000438014038B504460D460020009000902B
:100E800009E09DF80010605CFFF7D6FF9DF80000B8
:100E9000401CC0B200909DF80000A842F1DB38BDB4
:100EA00000B58BB04FF40070ADF8280003208DF82A
:100EB0002A0018208DF82B000AA94048FFF7CAF92C
:100EC0004FF48060ADF8280048208DF82B000AA967
:100ED0003A48FFF7BFF94FF4E13006900020ADF833
:100EE0001C00ADF81E00ADF82000ADF824000C2069
:100EF000ADF8220006A93248FFF728FE30480088E6
:100F00002F48001D008840F225512D48FFF7B4FD01
:100F1000012240F225512A48FFF7F3FD012240F259
:100F200024412748FFF7EDFD01212548FFF7B3FDD8
:100F30000420ADF8140003208DF8160018208DF859
:100F4000170005A91D48FFF785F90820ADF8140022
:100F500048208DF8170005A91848FFF77BF94FF4D2
:100F6000E13001900020ADF80800ADF80A00ADF8BE
:100F70000C00ADF810000C20ADF80E0001A91148CE
:100F8000FFF7E4FD0F4800880E48001D008840F27E
:100F900025510C48FFF770FD012240F22551094808
:100FA000FFF7AFFD012240F224410648FFF7A9FDFB
:100FB00001210448FFF76FFD0BB000BD00080140A0
:100FC0000038014000440040E80F00080000002005
:100FD00030000000320C000818100008300000201B
:100FE000E8090000420C00080000010000000000B9
:100FF00000A24A04000000000000000001020304F7
:1010000006070809000000000102030401020304AE
:081010000607080902040608A6
:0400000508000131BD
:00000001FF
